:10000000008000103D08000045080000470800007F
:10001000490800004B0800004D08000000000000E7
:100020000000000000000000000000004F08000079
:1000300051080000000000005308000055080000AF
:100040005708000057080000570800005708000034
:100050005708000057080000570800005708000024
:100060005708000057080000570800005708000014
:100070005708000057080000570800005708000004
:1000800057080000570800005708000057080000F4
:1000900057080000570800005708000057080000E4
:1000A00057080000570800005708000057080000D4
:1000B00057080000570800005708000057080000C4
:1000C0005708000039483A4970B5884223D0394C66
:1000D000A14220D2024652F8046B0B46CD4343F8AE
:1000E000046B6519A342C5F3800514D23DB11668AF
:1000F00000F108021E6001F10803A3420BD2104672
:1001000050F8045B194641F8045B5668021D5E60B6
:100110000B1DA342F3D328482849884224D0284CF9
:10012000A14221D2024652F8046B0B46CD4343F85C
:10013000046B04EB050CA342CCF3800514D23DB153
:10014000156800F108021D6001F10803A3420BD2FB
:10015000104650F8045B194641F8045B5668021DCE
:100160005E600B1DA342F3D3164A1748824216D293
:1001700000211346D64343F8041B84198342C4F379
:1001800080040CD224B1196002F10803834206D224
:100190001A4642F8041B5960131D8342F8D306F037
:1001A000DFFC00F0A1FA11F029FD00BF7426010068
:1001B0000000001080060010F42C0100FC08001064
:1001C000FC08001080060010FC0800101B482021CD
:1001D000C0F8A011D0F8A01111F0400FFAD0022100
:1001E000C0F804110121C0F80C110B22C0F88420C2
:1001F000C0F88010AA22C0F88C205523C0F88C309B
:10020000D0F8881011F0806FFAD00321C0F8801068
:10021000C0F88C20C0F88C300521C0F808110021EE
:10022000C0F8A811C0F8AC11054AC0F8C420C0F845
:10023000C81143F23A0101607047000000C00F404E
:10024000DE8728040000000000000000000000001D
:10025000000000000000000000000000000000009E
:10026000000000000000000000000000000000008E
:10027000000000000000000000000000000000007E
:10028000000000000000000000000000000000006E
:10029000000000000000000000000000000000005E
:1002A000000000000000000000000000000000004E
:1002B000000000000000000000000000000000003E
:1002C000000000000000000000000000000000002E
:1002D000000000000000000000000000000000001E
:1002E000000000000000000000000000000000000E
:1002F00000000000000000000000000000000000FE
:1003000040F28063C1F200031A780AB90120187024
:10031000704700BF40F28060C1F2000008B503687A
:100320002BB140F20003C0F2000303B1984708BDAF
:1003300008B50021074810F079FD0421064810F0A7
:1003400075FD0648042110F071FD054B01221A606D
:1003500008BD00BF24F200002CF2000034F20000BF
:100360008C060010024B16221A604FF0FF307047C7
:10037000F807001008B511F041FC00BF01207047DC
:1003800070B5094D06462C684CB111F079FAA319E5
:10039000834207D8296820468E192E6070BD034C11
:1003A0002C60F2E705F06AFC8806001000090010D6
:1003B00001F0020311F4806F18BF43F0040311F041
:1003C000080F18BF43F00803194610F02FBD00BFF7
:1003D00010F002BD022801DC0120704710F012BDB0
:1003E00002282DE9F0476EDD404F3B68002B61D1BC
:1003F0003F4D404C25F0010C65460CF1280615F8E0
:1004000001ABC3F34F0883EA0A0313F0010F1CBFCB
:1004100088EA04081FFA88F84FEA5A0988EA090AA4
:100420004FEA58031AF0010F1CBF63409BB24FEA1A
:10043000590883EA08095B0819F0010F1CBF6340E3
:100440009BB24FEA580883EA08095B0819F0010FCC
:100450001CBF63409BB24FEA580883EA08095B0857
:1004600019F0010F1CBF63409BB24FEA580883EAA2
:1004700008095B0819F0010F1CBF63409BB24FEAEB
:10048000580883EA08095B0819F0010F1CBF634094
:100490009BB283EA58085B0818F0010F1CBF634049
:1004A0009BB2B542ABD142F23F04A34212D1DCF879
:1004B00028303B60033853F8200038B103681B69CB
:1004C0009847BDE8F0870020BDE8F0874FF0FF3087
:1004D000BDE8F087084909480C686B220121E368F0
:1004E00006F02EFB012011F089FB00BF84060010EE
:1004F000F10F010001A0FFFFDC0100103CF2000041
:1005000010B50B4C82B0236814460BB9022808DDE5
:100510002246002310F04CFD20F00040201A02B0CB
:1005200010BD01900091FFF703FF00990198EFE7DC
:100530008C06001010B50C4C82B0236814460BB921
:10054000022809DD0023224610F068FD0028A8BF1C
:10055000C0EB040002B010BD01900091FFF7E8FE6F
:1005600000990198EEE700BF8C0600104FF400538D
:100570004B600020704700BF4FF0FF30704700BF56
:100580004FF0FF30704700BF2DE9F04F8BB007A947
:1005900000220B1D4C4C43F8042B1A802068079254
:1005A00004F00CFD42A3D3E9002304F0A9FB05F0FD
:1005B0001BF84649054605F031FB00B10025444EC5
:1005C00025607369B269586910426FD0DA612846B4
:1005D00004F0F4FC38A3D3E900238046894604F0F4
:1005E00041FD82468B4603F03FFA02460B4604F07B
:1005F00087FB04F0F9FF59460746504603F074F9AB
:1006000004F0F2FF2EA3D3E90023064649464046F4
:1006100004F028FD03F028FA00222E4B04F022FDFE
:1006200004F0E2FF0546384604F0C8FCCDE90001BD
:10063000304604F0C3FCCDE90201284604F0BEFCBC
:100640004246CDE904014B462349244810F030FFCF
:100650004AF6AA231D492068ADF81C3005F022F99E
:1006600005F0E6FA1E49ADF81E00384605F01AF905
:1006700005F0DEFA1A49ADF82000304605F012F90F
:1006800005F0D6FA1649ADF82200284605F00AF919
:1006900005F0CEFA134BADF82400022107A805227D
:1006A0001B6806F04DFA0BB0BDE8F08F9A618EE73B
:1006B000FCA9F1D24D62603F894160E5D02219402A
:1006C000894160E5D02229405007001000007A449B
:1006D000AC0600100000E03FCCF20000C80600109D
:1006E0000000C8422007001010B515484FF46121E2
:1006F00010F0F8FC1348144905F03AFD134B18604C
:10070000C8B1134913484C698A691349A26110F0B2
:10071000D9FC12484FF4FA6110F000FB104C03E0D2
:10072000DA61104811F076FB6369A26958691042DA
:10073000F6D19A61F5E70C49014810F0B9FEE0E7FF
:10074000C8060010ECF20000FCF2000020070010C8
:10075000AC060010340700108905000024070010C3
:1007600090060010CDCCCC3D00F300002DE9F04107
:10077000214E224C0023224D2249234A304610F0BC
:10078000C5FC22462149304600F06AF8284610F0A0
:10079000FBFD1F492846DFF8A08040F8101B002110
:1007A00010F094FC1B4E224628461B4900F058F8D6
:1007B0001A4F00221A4940460FF0FCFF31462246EC
:1007C000404600F04DF8174D0022384616490FF00C
:1007D000F1FF22463146384600F042F813492846D8
:1007E00010F040FA124B1349284622462B60BDE810
:1007F000F04100F035B800BFC8060010C40000107A
:100800002407001002C0092003C009209D11010027
:10081000AC240100F1070100570D0100AC060010E7
:1008200032C009205407001034C0092008F300002A
:1008300064230100050A0100900600100648804765
:1008400006480047FEE7FEE7FEE7FEE7FEE7FEE7B5
:10085000FEE7FEE7FEE7FEE7CD010000C500000071
:1008600003460846194605F02DBA0098904214BF79
:1008700001200620704738B514461D4600F0B5F932
:1008800028B1012008232C60EB60023B2B7138BD9E
:100890002DE9F0419846069F0446089B1546099E9F
:1008A0009F420CD1079900F0A0F940B1757103E0A7
:1008B000012337603571B3710020BDE8F081204617
:1008C000414600F092F90028F2D1F5E7F8B5054667
:1008D0000C4616461F4600F088F940B9032F07D88A
:1008E00023682046294632465B699847F8BD0120B7
:1008F000F8BD0000034B10B50446036000F05AF940
:10090000204610BD18F3000010B50446FFF7F2FFB3
:10091000204600F025F8204610BD002281600260CC
:100920000271C2607047F0B5064685B00F46684652
:1009300010211446FFF7F1FF33683046394622682C
:100940009D696B46A8479DF8043003F00603062B0B
:1009500003D1009B0120236000E0002005B0F0BD22
:1009600008B106F097B97047FFF7FABF00F006002C
:10097000A0F10603584240EB03007047401870474F
:100980000022816002600271427182717047F7B586
:100990000E1E089C07DB1046FFF7F0FF844214BFD1
:1009A0000120062008E016F1020F04D0056800942B
:1009B0002C6AA04700E00120FEBD2DE9F0471D464E
:1009C000036888B088461646A3F10807044653F822
:1009D000081CFFF7D3FFD7F8049005AF102182461B
:1009E0003846FFF7CDFFD9F800304846CDF800A0D3
:1009F000CDF804802946029406220397DF69334626
:100A0000B847059F3FB39DF81A904846FFF7AEFFE1
:100A100008BB9DF819A09DF818000AEA0000FFF72E
:100A2000A5FFC0B90AF0050ABAF1040F12D0B9F156
:100A3000000F08D1304629463A4643460094FFF756
:100A4000A6FF8DF81A009DF81A00FFF78FFF08B176
:100A5000059F00E00746384608B0BDE8F087000073
:100A600010B5002814BF0446012405E0054B1B689F
:100A70000BB905F003F99847204606F003F9002862
:100A8000F4D010BDA4070010FFF7EABF08B51B2281
:100A90000249022008F0B6FE00F072FB6EF300007F
:100AA000F8B504460F4616461D46FFF7E4FE38B972
:100AB000A0683946324603689C692B46A047F8BDBA
:100AC0000120F8BD2DE9F04F85B00C4619460546CA
:100AD00016461F46DDF83890DDF840A0DDF844806A
:100AE00000F083F88346B0B1002CC8F8009088F875
:100AF000046009DB4C44A24514BF4FF0010A4FF0DB
:100B0000060A88F806A011E014F1020F0ED10123A5
:100B100088F806300AE0D1450CD128460F9900F03C
:100B200064F838B188F80560584600E0002005B048
:100B3000BDE8F08FA86821460F9A036801923246FB
:100B4000CDF80090CDF808A0CDF80C80DD693B46CB
:100B5000A847ECE72DE9F3410446DDF820800D4677
:100B600017461E46904506D1194600F03EF810B1D2
:100B70000620BDE8FC81A06829463A460368CDF806
:100B800000801C6A3346A047F3E70000034B10B512
:100B900004460360FFF7AEFE204610BD98F3000048
:100BA00010B50446FFF7F2FF2046FFF7D9FE2046B6
:100BB00010BD0000014B0360704700BF18F4000037
:100BC00000207047002070470020704710B5044691
:100BD000FFF7F0FF2046FFF7C3FE204610BD406838
:100BE00003782A2B08BF01307047814238B50D4683
:100BF00011D0FFF7F4FF037804462A2B0DD02846C6
:100C0000FFF7EDFF0146204606F0BDFED0F10100E2
:100C100038BF002038BD012038BD002038BDFFF7A7
:100C2000E4BF2DE9F84304460D461646994643B104
:100C30008046002703E040460137C847B044AF4232
:100C4000F9D12046BDE8F88313B50C460021009188
:100C500019462346FFF7E5FF1CBD032894BF00207B
:100C60000120704700F0010070474018704709B13B
:100C700003689A581146FFF7F8BF0000034B10B500
:100C800004460360FFF736FE204610BD70F40000F6
:100C900010B50446FFF7F2FF2046FFF761FE20463D
:100CA00010BD406800F0010070474068C0F340008C
:100CB00070474068001270472DE9F74F8B460C993A
:100CC0000546924699468A423BD11946FFF78DFF69
:100CD000002832D135E0013CA61C05EBC6063046A3
:100CE000FFF7E3FF18B33046FFF7E3FF0746304650
:100CF000FFF7D7FF064610B11BF1030F17D03A4696
:100D000031465046FFF7B3FF0C99024658F8080CDD
:100D10000368009159461F6A4B46B8470746FFF7DC
:100D20009CFF20B156B147F00107FFB206E0A8F1E1
:100D30000808002CCFD1012700E006273846BDE87F
:100D4000FE8FEC6804F1020805EBC808F1E72DE915
:100D5000F04F89B00546924603911C46FFF78BFD84
:100D6000002840F08D80D4F80890D5F80C8019F058
:100D7000100F08F1020618BFD5F8089005EBC6065B
:100D800076E0494608F1FF3804A8FFF7C6FD08F1F0
:100D9000020305EBC30301931846FFF78AFF019B8B
:100DA00007461846FFF77DFF019B83461846FFF76D
:100DB0007CFF029010B919F0010F58D0BAF1000F62
:100DC00006D03A4650465946FFF751FF024600E02A
:100DD000524656F8080C039903689F6904ABB8475C
:100DE000002844D0079B082B05D1BBF1000F02D08F
:100DF00056F8083C07939DF814703846FFF72DFF0E
:100E000028B1029B1BB927F002078DF81470E16826
:100E1000C9B904AB0FCB84E80F0027793846FFF738
:100E20001CFF00282CD017F0020F03D0AB6813F082
:100E3000010F06E03846FFF715FF08B3AB6813F063
:100E4000020F14D11CE02368049A934203D00023BC
:100E50002360023309E0BBB90798082804D00829A9
:100E600002D0FFF7C2FE78B90223237108E0083EE2
:100E7000B8F1000F85D12079003818BF012000E0BB
:100E8000012009B0BDE8F08F23799DF8142042EAD3
:100E900003032371EBE72DE9F04F91B00746894634
:100EA0001D9C07930692A3681A9A13F0100F1CBF9B
:100EB0008368A3601C9B9A4240F03E811B99FFF718
:100EC00094FE002800F03881069A62712EE11A9B88
:100ED000B9F1000F069A236022710ADB18464946D1
:100EE000FFF7C3FE1C9B834214BF01200620A071A4
:100EF0001CE119F1020F40F019810123A37115E1E2
:100F0000B9F1000F04DB1C98C9F10001FFF7ADFE39
:100F10004FF0000801220890CDF82C80099201E0E2
:100F2000CDF824A0D7F80CA00AF1020307EBC30305
:100F30000A93F0E00AF1FF3AA1680AF102050DA850
:100F4000FFF71EFD07EBC5052846FFF7B2FE8346F7
:100F50002846FFF7A6FE014618B1069B43F001069E
:100F600000E0069E5A461A98FFF781FE089A8346CB
:100F70003AB19042099A94BF00230123934200F0B2
:100F8000C5802846FFF791FE48B919F1020F04D138
:100F9000A36813F0030F00F0BB8006F0FD060A9B68
:100FA00049461B9A53F8080C036801921C9ACDF825
:100FB00000B002920DAA03923246DD69079BA84752
:100FC0009DF83A5063799DF83920062D42EA0303D3
:100FD000637101D0022D06D10D9BA57123609DF890
:100FE00038302371A5E0D4F800B0B8F1000F10D16B
:100FF000BBF1000F0DD10D9A9DF8381022602171C0
:10100000002A7ED0002B7CD0BB6813F0010F78D172
:101010008FE0BBF1000F0BD00D9A934506D12379D9
:101020009DF8382042EA030323716BE032B928B9F6
:101030000D9A002A66D0B8F1000F63D01846A67941
:101040000593FFF70AFE059B00287DD01846FFF7A1
:1010500009FE18B1A36813F0020F75D1002E08BF66
:101060000126002D08BF01251EE02846FFF7F5FDEB
:1010700000286CD02846FFF7F5FD18B1BB6813F0C7
:10108000020F64D101267DB93046FFF7E6FD002846
:1010900067D03046FFF7E6FD28B1BB6813F0020FBA
:1010A0005FD1013500E0012586EA0500C0B2FFF7F7
:1010B000D4FD8346A0B12846FFF7CFFD38B10D9B84
:1010C0002E464FF0000823609DF83830237116F04B
:1010D000020FA6712AD13046FFF7C4FD90B928E06F
:1010E00006EA05054FF00108E8B2FFF7B6FD20B1AA
:1010F0000223C4F800B0A3711AE0206084F80680CF
:1011000000E080466379042B02D111E001230B93A8
:101110000A9A083A0A92BAF1000F7FF40BAF0B9BC0
:1011200033B1099A002A7FF4FBAE01E0002000E011
:10113000404611B0BDE8F08F38460799FFF755FDDE
:1011400000287FF4C4AEDBE6002E9CD18DE71C9B0B
:10115000494607985A4600931B9BFFF718FC064622
:1011600091E71C9A494607981B9B00920D9AFFF73E
:101170000EFC054698E708B5804704F07FFD0000A7
:1011800008B5024B1868FFF7F6FF00BFE800001033
:101190001D4B73B51E781D4C16B123681C482DE0FD
:1011A00001221A7002F08EFB30B3FFF718FD02AB7C
:1011B00031464FF0FF3243F8042D3246054602F027
:1011C00011FB2368D9680646124805F055F8019BC3
:1011D00013B92368304601E023682846D96805F032
:1011E0004BF823680C48D96805F046F8019B43B9D1
:1011F000304605F04FFD04E023680848D96805F043
:101200003BF804F03BFD00BFA8070010DC01001014
:1012100098F40000B6F40000E7F40000EAF40000DF
:101220004269034681698A4206DA01690C2000FBA3
:10123000021001325A6170470020704770B51E4697
:101240004B1E0C461546402B2FD8DFE803F021211A
:1012500021212E2E2E2E242421242424242424242F
:101260002424242E27272727272721242424242425
:101270002E242726212E2127272E2E24212121210D
:101280002121212124212E2E2424242E2E2E24001F
:101290007DB11EB90BE00DB90BE066B1FFF7C0FFE1
:1012A00050B104704560866070BD002070BD30464E
:1012B00070BD284670BD304670BD38B50C46154629
:1012C000FFF7AEFF48B12CB135B100234460037085
:1012D000856038BD204638BD284638BD10B50C465F
:1012E00031B1FFF79DFF20B123234460037010BD8F
:1012F000084610BD38B50C461546FFF791FF18B1EA
:10130000162344600370856038BD70B504460D46F1
:101310001646C36822E0E2680132722BE26005D112
:10132000002E0CBF17211A21236B06E0562B236BCE
:1013300005D1002E0CBF18211B21093304E0002E1B
:101340000CBF19211C2106330022236320461346BB
:10135000FFF774FF286048B1E368051D1B78562B22
:10136000D9D0722BD7D04B2B01D1D4E705462846D4
:1013700070BD51B1036A426A934208DAC26942F809
:101380002310013303620120704708467047002094
:101390007047C36870B504461A78532A6FD15A1C37
:1013A000C2605B781BB101325F2BC2602ED0A3F10B
:1013B0003002D2B2092A01D8002206E0A3F141028C
:1013C000D2B2192AF8D92CE00A46A3F13001C9B2E9
:1013D000092905D8242101FB0233A3F1300109E0DA
:1013E000A3F14101C9B2192949D8242101FB0233D3
:1013F000A3F13701914242D3E2681378002BE3D086
:1014000001325F2BE260DFD1013100E00021236A6D
:10141000994236D2A36A0133A362E36953F82100EB
:1014200070BDA26812F0080F09D151B1E2681678B8
:10143000433EF6B2012E8CBF0026012602E00126B3
:1014400000E00E46002210498D18895C994213D1A4
:10145000696921B12046AA69FFF74CFFE06216B125
:10146000E9682A6901E06968AA68236B20469B182D
:101470002363BDE870403DE71C32C42AE3D100205D
:1014800070BD002070BD00BF18F50000D0F8041139
:1014900038B5044643180025D4F810211D71D0F842
:1014A0000C3104309847D4F82431C4F80451013386
:1014B000C4F8243138BD38B50446D0F804310D469F
:1014C000FF2B01D1FFF7E2FFD4F8043184F8085173
:1014D000E2180133C4F80431157138BDF8B505467A
:1014E0000C461746002604E0A15D2846FFF7E3FFFF
:1014F0000136BE42F8D1F8BD06E003782B2B09D1A6
:10150000002903DD806801390028F6D121B920B116
:1015100040687047002070470020704770B504464F
:1015200008460D4606F042FA294602462046BDE826
:101530007040D3E710B588B004460A4601A80449B4
:1015400006F08CF9204601A9FFF7E8FF08B010BDAE
:1015500099040100C36870B50446C3B98568002DBD
:1015600008BF022500E06D008D42FCD320682946AB
:1015700005F03AFE064640B9206805F08BFB0123D2
:1015800026606660A660E36070BD2060A56070BDE7
:10159000F8B50D465168074693681446013149195C
:1015A000994202D91046FFF7D5FFE6686EB9636825
:1015B0002A4620683946C01805F094FD2268636801
:1015C0005219D65463685D196560F8BD036810B59B
:1015D0001A786E2A04D15A1C012102605A7800E060
:1015E00000210023A2F13004E4B2092C03D901B197
:1015F0005B42184610BD0A2404FB03230268541CF6
:101600000460303B5278EDE738B5044629B9C36829
:10161000187810B301460133E360682902D104F160
:101620000C000DE0762915D104F10C052846FFF7D2
:10163000CDFFE3681A785F2A0CD128460133E360B6
:10164000FFF7C4FFE3681A785F2A05D10133012050
:10165000E36038BD002038BD002038BDC36810B538
:1016600004461B785F2B06D06E2B0CD00C30FFF796
:10167000ADFF013000E00020E3681A785F2A05D151
:101680000133E36010BD4FF0FF3010BD4FF0FF306D
:1016900010BD38B50446C3681A78542A10D10133F6
:1016A000C360FFF7DBFF051E0CDBA36A2046013396
:1016B000A362FFF7B5FD30B105234560037038BD67
:1016C000002038BD002038BD08B5C3681A785F2AED
:1016D00007D1013340F80C3FFFF778FFC043C00F3C
:1016E00008BD012008BD70B504460C30FFF76EFF41
:1016F000061E34DDE56863685B1BB3422CDBA26821
:10170000AB19E36012F0040F04D0AA5D242A01D1C2
:101710000133E360092E19DD28461249082205F03D
:10172000D3FC98B92B7A05F108022E2B03D05F2B3E
:1017300001D0242B0AD153784E2B07D1236B20469E
:101740000949152216339E1B266302E020462946CE
:101750003246FFF7B2FD00E00020E06270BD0020DD
:1017600070BD00BFACFB0000B5FB0000C3682DE9F5
:10177000F04104461A780D46472A02D0542A40F018
:101780003781226B02F1140121631978542905D1A4
:10179000581CE060597829B90E467DE1472940F090
:1017A00025819EE001305329E06037D00DD84629CD
:1017B00000F0898003D8432940F0188167E0492967
:1017C00025D04A2940F0128184E0632949D005D808
:1017D000542912D0562940F0098105E0682924D007
:1017E000762940F003812EE00F322046226300F07C
:1017F00038FB09210246204607E00A3220462263D0
:1018000000F02FFB0A2102462046002340E120463B
:1018100000F027FB0C2102462046F6E7204600F0A8
:1018200020FB0D2102462046EFE72046FFF7ECFEA5
:10183000002800F0D98000212046FFF797FF0F21F4
:1018400002462046E1E72046FFF7DEFE002800F0D2
:10185000CB8000212046FFF789FF10210246204659
:10186000D3E720460021FFF7CFFE002800F0BC8020
:1018700020460021FFF7C8FE002800F0B5800021B7
:101880002046FFF773FF112102462046BDE72046A0
:1018900000F0E7FA054604F10C00FFF797FE002878
:1018A000C0F2A480E3681A785F2A40F09F80013379
:1018B0002046E36000F0D5FA236B0B210533236348
:1018C00002462046E3E0204600F0CBFA0E21024615
:1018D00020469AE7204600F0C4FA1221024620462C
:1018E00093E75A1CE2605E78002E00F0D5809A1CC7
:1018F000522EE2600FD002D8412E77D112E0562E40
:1019000002D0722E72D115E0204600F078F9132132
:101910000246204679E7204600F071F9142102467C
:10192000204672E700212046FFF720FF15210246DE
:1019300020466AE704F10C00FFF748FE012855DD58
:10194000E5682E78002E00F0A78001355F2EE56057
:101950004CD1461E4FF0000800E098462F78002F2B
:101960003ED0242F1CD16B78532B04D05F2B04D096
:10197000242B3BD102E02F2700E02E272046FFF743
:101980004FFC034610B1392247600270E56802350A
:10199000E5603BB3023E13E00137B74201DB04E0F0
:1019A0000027EB5D0BB1242BF6D1294620463A46A1
:1019B000FFF783FCE568ED19E5600346A0B1F61B6F
:1019C000B8F1000F06D0204638214246FFF736FC1A
:1019D000034648B1002EC0DC204637211A4614E7E2
:1019E0003E4659E01E4657E0064655E0002653E0C5
:1019F00000F005F90646C0B1BDB1A36813F0010FB0
:101A000013D100E076683378A3F11A02D2B2022A29
:101A1000F8D9022B40D1B36800E05B681A781A3A13
:101A2000D2B2022AF9D9B36036E0E3681B78002EFF
:101A300032D0002B30D0452B2ED031460B78042BE2
:101A400004D01CD31A3B022B19D814E0496879B191
:101A50000B78082B05D8072B09D2013B012B02D8A4
:101A600003E02E2B03D0002102E08968EFE701217B
:101A700081F0010104E049680029DFD100E0002184
:101A8000204600F05EFC03213246054620462B46E8
:101A9000BDE8F041FFF7D2BB3046BDE8F081C36836
:101AA0001A785F2A0AD10133C360C3681A785A2AA8
:101AB00002D10133C36059E6002070470029FBD1F1
:101AC000F3E7C36870B504461A784C2A3DD15A1C16
:101AD000C2605B785F2B01D05A2B04D120460021D5
:101AE000FFF7DDFF2AE000F0BCF9054600282ED004
:101AF0000378232B06D143681A7C1AB1226B5B68EA
:101B0000D31A2363E3681A786E2A03D10133362689
:101B1000E36000E03526E16802E0D0B10132E26026
:101B2000E26810784528F8D1521A2046FFF7C5FB25
:101B300031462A4603462046FFF780FBE3681A78C1
:101B4000452A05D10133E36070BD002070BD70BD32
:101B5000002070BDC36873B504461A78C66A492A66
:101B600048D15A1CC2605B78452B09D10132C26052
:101B700000222B21134602B0BDE87040FFF75EBB88
:101B800002AD002345F8043DE26813784C2B11D0D8
:101B9000582B02D0492B15D110E001322046E260CB
:101BA00000F015FDE36819784529024622D101337A
:101BB000E3600BE02046FFF784FF06E02046FFF7D6
:101BC000C9FF02E0204600F04CF90246A2B12046CF
:101BD0002B210023FFF732FB286070B1E3681A78ED
:101BE000452A02D000F10805CEE70133E662E36042
:101BF000019802E0002000E0104602B070BDC3680A
:101C00002DE9F34104461A784C3A0E2A00F2058178
:101C1000DFE812F0D70003010F0003010301030105
:101C20000301DA000301D7000301030103010301EB
:101C30008700013301A9C3600122FFF766FB064656
:101C4000002800F003814FF0000800E0B846E36888
:101C50001D78002D52D0A5F13002D2B2092A0DD93B
:101C6000A5F16102D2B2192A08D9A5F14302D1B275
:101C7000122907D8774952B2914003D5204600F087
:101C8000E1FB16E0532D04D120460121FFF781FB33
:101C90000FE0492D08D1B8F1000F33D02046FFF7EF
:101CA00059FF0421074615E0542D07D12046FFF7C0
:101CB000F0FC0746B8F1000F0BD111E0452D21D003
:101CC0004D2D1DD1B8F1000F1CD001334746E36004
:101CD000BCE701213B4620464246FFF7AFFA0746E4
:101CE000532DB3D0E3681B78452BAFD0204639463F
:101CF000FFF73FFB0028A9D1804603E0A84601E09A
:101D00004FF00008C6F80080B8F1000F07D0E36874
:101D10001A78452A53D10133019EE36096E0464686
:101D200094E001330021C360FFF720FDE3681A78D7
:101D3000452A074643D15A1CE2605B78732B10D1C9
:101D400001322046E260FFF7BFFC00287DD0424907
:101D50000E222046FFF7B1FA02213A4603462046FA
:101D60006EE0642B08D101322046E260FFF776FC7A
:101D7000B0F1000802DA22E04FF0FF382046FFF70A
:101D80003EFF054648B103783E2B06D0402B04D0D9
:101D90002046FFF799FC002857D0B8F1FF3F09D043
:101DA0002046FFF73DFA20B13F23C0F808800370BA
:101DB00045600546204602213A462B4640E0002673
:101DC00044E000F03FFB40E05A78742A05D000213F
:101DD0000125FFF7DEFA064614E002331F49C3600F
:101DE0000322FFF76AFA0546204600F02BFB2A463D
:101DF0000121002503462046FFF720FA236B033319
:101E000023630646E3681B78492B1FD18DB9204612
:101E10003146FFF7AEFA60B915E000F013FBE36856
:101E20001B78492B064611D120463146FFF7A1FA0F
:101E300058B12046FFF78EFE042132460346204665
:101E4000FFF7FCF901E02E4600E006463046BDE80B
:101E5000FC8100BF002040C0CBFB0000DAFB00008B
:101E6000CDE6F7B50446C2681378562B03D0722B23
:101E700001D04B2B10D1204601A90022FFF745FAD3
:101E80000546002800F019822046FFF7EAFF286087
:101E9000002800F0118212E2A3F130014A2900F279
:101EA0000982DFE811F0770077007700770077008C
:101EB00077007700770077007700070207020702B4
:101EC00007020702070207027B00070225014901FA
:101ED000070265002E010702070207020702070238
:101EE000A80077000A01130107021C01DF00CD00E2
:101EF0003B010702070207020702770007020702F9
:101F000007020702070207024B004B004B004B0081
:101F10004B004B004B004B004B004B0007024B00AB
:101F20004B004B004B000702070207024B004B001F
:101F30005C004B004B004B004B004B00934A1421BC
:101F4000204601FB0321FFF7C9F9226B436801908A
:101F50005B68D3182363E3680133E360A8E10132CF
:101F60002046E260FFF7BFFB242102462046D0E076
:101F7000531CE3605278592A01D10133E3600121F7
:101F8000204600F0DEF9E3681A78452A31D10133A2
:101F9000E360C1E02046FFF763FFBDE0511CE16054
:101FA00053785F2B17D0303BDBB2092B0CD8E3689A
:101FB0005A1CE2605B78303BDBB2092BF7D9204634
:101FC000521AFFF77AF902E0204600F000FB0546BE
:101FD000002834D000E00025E3681A785F2A08D191
:101FE00001332046E360FFF73CFF262103462046ED
:101FF00055E0002090E001322046E2606D46FFF798
:1020000030FF6946012206462046FFF77EF9074663
:10201000A8B12046FFF725FF386000287CD0AF42EA
:1020200008D00378252B05D020460099FFF7A1F9A9
:10203000002871D0204627213246009B6AE06BE0E1
:102040002046FFF726FBE368019001461B78492BE9
:1020500040F035812046FFF78CF9002800F02C81F4
:10206000019D16E05378A3F13002D2B2092A05D9B6
:102070005F2B03D0413BDBB2192B12D80021204645
:10208000FFF787F9E368019005461B78492B40F07C
:102090000F812046FFF75EFD0421034620462A46B5
:1020A00038E02046FFF7DCFE0190002800F00781B1
:1020B0000378162B40F00381FAE001322046E260FB
:1020C000FFF7CFFE20210246204622E001322046C3
:1020D000E260FFF7C6FE1E210246204619E00132EB
:1020E0002046E260FFF7BDFE1F210246204610E0B9
:1020F00001322046E260FFF7B4FE2121024620466D
:1021000007E001322046E260FFF7ABFE22210246E3
:1021100020460023FFF792F80190D0E001322046DC
:10212000E260FFF7E0FA01902046FFF79AFE1D21DA
:10213000019B02462046EDE7531CE3605578002DD5
:1021400000F0BB805A1C682DE26049D00ED8642D87
:1021500040D005D8462D54D0542D40F0AB8017E028
:10216000652D3AD0662D40F0A58030E0732D3AD031
:1021700005D8692D3AD0702D40F09C801FE0742D59
:1021800006D0762D40F0968069E000BF48EE000052
:10219000204600F01CFA3B21002302462046FFF7B0
:1021A0004DF80190002800F08380E26813781BB19D
:1021B0000132452BE2607BD00023019378E020467A
:1021C000FFF74FFE41210023024620466BE02046E8
:1021D0003E490DE020463E490AE020463D4907E0E1
:1021E00020463D4904E020463C4901E03C49204668
:1021F000FFF774F8226B019043685B68D318236380
:1022000056E02046FFF70CF8282301900370E3689E
:102210001B78303BDBB2092B8CBF002301230381E9
:102220001BB104F10C00FFF7D1F92046019DFFF727
:1022300018FE019B68605D68002D3ED004F10C0023
:10224000FFF7C4F9E26813780BB10132E260A3F141
:102250007302534243EB0203019A538128E05B78F7
:102260005F2B06D101322046E26000F0B0F905464E
:102270000BE02046FEF7D4FF0546B8B13A230370C1
:1022800004F10C00FFF7A2F968607DB1E3681A78E9
:102290005F2A0BD101332046E360FFF7E2FD2921DD
:1022A0002A4603462046FEF7C9FF00E000200190C1
:1022B000019D02E0002500E005462846FEBD2046BF
:1022C0000199FFF756F80028F2D1F5E7E4F700008E
:1022D000F8F700000CF8000020F8000034F80000C7
:1022E00048F8000037B5044602AD002345F8043D28
:1022F000E3681B7883B1452B0ED02046FFF7B1FD74
:102300000246E0B120462A210023FEF797FF28600D
:10231000A0B100F10805EBE7019A82B1936873B9A7
:102320005168087823280AD14968087C092806D111
:10233000206B4968411A2163536000E00246104651
:102340003EBDC36870B504461A784A2A02D10133EB
:10235000C36000E029B12046FFF783FD054668B160
:1023600000E00D462046FFF7BDFF034638B120468A
:1023700025212A46BDE87040FEF760BF70BD70BDE4
:10238000C3682DE9F0410446197809B10133C360EF
:10239000E368187808B10133E360762917D1A0F11A
:1023A0003006F3B2092B21D82046FFF79CF90546E9
:1023B0002046FEF735FF00283FD02DB12D23466083
:1023C00003708560BDE8F0812846BDE8F08163298F
:1023D0000CD176280AD12046FFF743FD2E21002399
:1023E00002462046BDE8F041FEF728BF3422002314
:1023F000D61ADFF84CC006EBD6760CF5517503EB18
:1024000066063701ED196744D7F8447397F800C0A2
:1024100061450BD17F78B84208D12046FEF700FF16
:1024200058B12C2345600370BDE8F08101D3731CC3
:1024300000E032469342DBD10020BDE8F08100BFCE
:1024400018F50000C3682DE9F04105461A78A2F19D
:102450003001C9B2092903D8BDE8F041FFF743B9FB
:10246000A2F16101C9B2192910D8FFF789FF04460A
:10247000002800F0A98003782C2B40F0A580436849
:102480002A6B9B68D31807332B639DE0A2F14301AD
:10249000C9B2012946D8C36A3BB11A780AB1162AD3
:1024A00003D1026B9B68D3180363EB681A78432A45
:1024B00003D0442A40F0878017E05A78322A07D0A8
:1024C000332A03D0312A7ED1012702E0032700E01E
:1024D000022702332846EB60EE6AFEF7A1FE0446AF
:1024E000002871D0E6B1072316E05A78312A07D0C8
:1024F000322A03D0302A66D1012702E0032700E008
:10250000022702332846EB60EE6AFEF789FE044696
:10251000002859D026B1082303700771866053E064
:10252000344651E04C2A0AD10133C360FFF7DBF88F
:102530000446002848D02846FFF7C6F83FE0552A51
:1025400041D159785A1C6C2902D074293BD120E022
:10255000C2605B786C2B36D10132C260FFF7C2FEDD
:102560000646A0B1EB681A78452A2CD101332846DB
:10257000EB60FFF773F8071E25DB2846FEF750FED9
:102580000446C0B13E2346600370876013E00446F2
:102590001AE0C2605B78742B15D10132C260FFF77C
:1025A0005DF8061E0FDB2846FEF73AFE044610B122
:1025B00040234660037028462146FEF7DAFE0028D5
:1025C00008BF002400E000242046BDE8F081C36875
:1025D0002DE9F04104461A784C2A03D1BDE8F041B8
:1025E000FFF76FBA542A03D1BDE8F041FFF751B8A5
:1025F000732A2CD1597872291ED10233C360FFF798
:1026000030FC05462046FFF71DFFE3681B78492B89
:10261000064604D0204601212A463346DDE0204606
:10262000FFF798FA0421324603462046FEF706FEDD
:10263000012103462046CFE070291FD10233C36039
:10264000FFF7C5FF4121002302462046C5E0662A68
:1026500014D15978702911D10233C360FEF7FEFFFF
:10266000061EC0F2BE802046FEF7DAFD05460028B1
:1026700000F0B880062346600370B3E0A2F1300199
:10268000C9B2092906D96F2A17D15A786E2A14D1EE
:102690000233E3602046FFF7D5FE0546002800F030
:1026A000A180E3681B78492B40F09C802046FFF70F
:1026B00051FA0421034620468EE02046FFF760FED3
:1026C0000546002800F08E8006782C2E0ED1436837
:1026D000216B9A6818688A184449023A226305F007
:1026E00052F948B92046FFF7BCFB1EE02D2E06D05C
:1026F0002E2E0DD02C2E74D16B68DB6800E0436861
:10270000022B16D0032B4DD0012B6AD12E2E09D1CE
:10271000E3681A785F2A05D101332046E36000F0B0
:102720006DF802E02046FFF752FF03462F212046B6
:1027300052E06B6820461F68FFF749FF2C490646A8
:10274000384605F020F918B9204600F057F81EE089
:102750003846284905F017F920B13846264905F0D2
:1027600012F988B92046FFF76DFEE3681B78492B04
:1027700007460DD12046FFF7EDF904213A460346FE
:102780002046FEF75BFD02E02046FFF720FF0746EC
:1027900031213B4620463246FEF750FD30210346AC
:1027A000204619E02046FFF712FF06462046FFF7B5
:1027B0000EFF07462046FFF70AFF34213A4603463C
:1027C0002046FEF73BFD3321324603462046FEF706
:1027D00035FD3221034620462A46BDE8F041FEF78A
:1027E0002DBD00252846BDE8F08100BF9DFD0000FD
:1027F000DEFB0000E1FB0000E4FB0000C36837B52E
:102800000022019204461978452901D001AD08E063
:1028100001332A21C360134603B0BDE83040FEF700
:102820000DBD2046FFF7D3FE024688B120462A217F
:102830000023FEF703FD286050B1E3681A78452AAB
:1028400002D000F10805ECE701330198E360FFE7EF
:1028500003B030BD012303607047003818BF01206A
:10286000704710B5D0F814412CB900F58E70FFF701
:10287000F1FF204610BD636809689868BDE8104004
:10288000FEF73ABE38B505460C46002C2DD023780D
:10289000162B2CD00CD8062B29D004D8002B26D0F0
:1028A000052B1BD110E0072B1DD0082B16D11AE0E9
:1028B0002D2B18D003D8232B19D02C2B02E0392B29
:1028C00015D0412B0AD112E02846211DFFF7C9FF80
:1028D00070B103782B2B18BF002038BD28466168E3
:1028E000FFF7D0FF20B9A468CFE7204638BD00200D
:1028F00038BD73B50D46096804460B78042B02D029
:1029000000F034F831E0D0F814210023D0F8186139
:10291000C0F8183102AB019143F8082DC0F814310A
:10292000496800F023F8009BC4F8143194F808318A
:102930003C2B03D120462021FEF7BDFD3C21204643
:10294000FEF7B9FD2B682046996800F00FF894F85F
:1029500008313E2B03D120462021FEF7ACFD204656
:102960003E21FEF7A8FDC4F818617CBD2DE9F047B3
:10297000044692B00D4619B900F58E7000F0ABBC5C
:10298000D0F81C01FFF769FF002840F0A6842B78DF
:10299000412B00F29E84DFE813F042008B008B0095
:1029A00099001D015D01710433047B0180018301E5
:1029B00086019101940197019A019D01A001A30153
:1029C000A601A901AC01AF01B301B301B301C50177
:1029D000C501C501C501C501C501C501C501C501C7
:1029E000F7017B0402023A029302AE029302CA028A
:1029F000CA02F4020A030F03180330039C047E0387
:102A00009C049C04A103A1032C042F043604270476
:102A100039047404770480049C048E0444042368FD
:102A200013F0040F00F068816E68AD6875193BE023
:102A3000AB1B032B33DD33785F2B30D173785F2BE7
:102A40002DD1B378552B2AD1F21C002119E012F8B0
:102A5000013BA3F130005FFA80FEBEF1090F01D8FF
:102A600003460CE0A3F14100C0B2052801D8373B72
:102A700005E0A3F16100C0B2052806D8573B03EB7F
:102A80000111AA421746E2D309E05F2B07D1FF29C3
:102A900005D82046C9B2FEF70EFD3E4603E02046AB
:102AA0003178FEF708FD0136AE42C1D300F015BC07
:102AB00020466968FFF75AFF236813F0040F02D11C
:102AC0002046A04975E220462E21E3E0D4F818A163
:102AD00000266B46C4F818616F681AE0042E00F0F7
:102AE000F883D4F8182100A9D4F814815F601A6023
:102AF00001EB0612C4F8182100229A6001363A78D8
:102B0000C3F80C801033A2F11A01C9B2022903D80C
:102B10007F68002FE2D1DCE3042A06D112AB1197C3
:102B200043F8088DC4F8143133E0022A31D1D7F8C4
:102B300008C000AA02EB061E9CF800303F2B08BF1D
:102B4000DCF804C01FE0032E0EF1100E00F2C1836A
:102B5000AEF12003AEF110090FCB89E80F00731E10
:102B600000A94EF81CCC01EB03134EF8148C4EF860
:102B7000103C01EB0613C4F8183100234EF8183C42
:102B80000136DCF804C09CF800301A3BDBB2022BA3
:102B9000D9D9A9682046FFF7E9FE3B7800AA042BA3
:102BA00002EB061504BF109BC4F814310DE055F874
:102BB000083C013E43B920462021FEF77CFC20461C
:102BC00055F80C1C00F0A4FB103D002EEFD1C4F80A
:102BD00018A182E30023D4F81871C4F818312368CF
:102BE0006E6813F0040F12D0337883B9B268062AE6
:102BF0000DD17068544904F0E1FE40B92046A9683F
:102C0000FFF7B4FE20465149FEF788FC1FE020463E
:102C10003146FFF7ABFE94F808313C2B03D1204638
:102C20002021FEF748FC3C212046FEF744FC2046CC
:102C3000A968FFF79BFE94F808313E2B03D120468C
:102C40002021FEF738FC20463E21FEF734FCC4F874
:102C5000187142E3291D2046FFF703FE01460028B4
:102C600000F0378303782B2B07D1D4F82011FEF71F
:102C700043FC0146002800F02C83D4F81451204670
:102C80002B68C4F81431FFF771FEC4F8145124E323
:102C900020467E21FEF70FFCB2E220462C49F5E2E9
:102CA00020462C49F2E220462B49FEF737FC20460D
:102CB0006968FFF75BFE204628497AE120462849EB
:102CC000E4E220462749E1E220462749DEE22046A9
:102CD0002649DBE220462649D8E220462549D5E2AE
:102CE00020462549D2E220462449CFE22046244905
:102CF000CCE220462349C9E220466968AA6853E12C
:102D0000D4F818210CE0916849B951680978A1F10B
:102D10001700C0B2022805D8994200F0B9821268A3
:102D2000002AF0D1D4F8182112AB0195204643F8BF
:102D3000482DC4F8183100230293D4F8143169687F
:102D40000393CCE0D5FD0000E7FB00003600010056
:102D500004FC0000EEFB0000F7FB000010FC00008C
:102D600015FC000023FC000036FC000047FC0000BE
:102D70004BFC00005DFC000078FC000088FC0000BB
:102D80009CFC0000B5FC00002368204613F0040FF3
:102D90006B6807BF19685A689968DA6804E12368A4
:102DA00013F0200F05D020462946D4F8182100F052
:102DB000CBFB6B68FBB1D4F8182112AB2046019510
:102DC00043F8482DC4F8183100230293D4F8143185
:102DD00069680393FFF7CAFD009BC4F81831029B92
:102DE000002B40F07A82236813F0200F03D1204695
:102DF0002021FEF760FB236813F0200F40F06D8266
:102E000020462946D4F8182100F09EFB65E2D4F84C
:102E1000187112AB01950126BE4643F8487DC4F8EF
:102E2000183100230293D4F8143103931FE0DEF825
:102E30000830D3B9032E00F24C824FEA061912ABC8
:102E400003EB09089EE80F00A8F1480C8CE80F007E
:102E500000A9D4F8183148F8483C01EB0903C4F83C
:102E600018310123F618CEF80830DEF800E0BEF184
:102E7000000F06D0DEF804301B78173BDBB2022BC4
:102E8000D5D92046A968FFF771FD029BC4F81871D7
:102E9000002B40F02282771E00AA02EB07170437AE
:102EA00004E020463969013E00F032FA103F012E5D
:102EB000F7D12046291DD4F8182100F00BFB0CE2B5
:102EC000D4F8182112AB2046019543F8482DC4F8D8
:102ED00018310023A9680293D4F814310393FFF743
:102EE00045FD029B1BB92046294600F011FA009BC4
:102EF000C4F81831F1E1B5F90A301BB12046914907
:102F0000FEF70CFB6968904B4A689A4206D020464F
:102F1000FFF72CFD20462021FEF7CDFAB5F9083049
:102F200013B12046894987E12046894984E16968CF
:102F300011B12046FFF71AFDAB68002B00F0CD81E0
:102F4000D4F80431FD2B02D92046FEF79FFA204623
:102F50008049FEF7E3FA2046A968D4F82471D4F832
:102F60000461FFF703FDD4F82431BB4240F0B58182
:102F7000D4F80431B34240F0B081023BC4F80431CC
:102F8000ABE120467449FEF7C9FA6B685B681B78B1
:102F9000613BDBB2192B03D820462021FEF78BFAC8
:102FA0006B68204659689A68FEF798FA95E16B4974
:102FB0002046FEF7B3FA23E120466849FEF7AEFA51
:102FC0002046291DFFF795FC87E169680B782E2BB9
:102FD00003D0204600F01AFB0CE020462821FEF723
:102FE0006AFA696820460431FFF783FC20462921EC
:102FF000FEF761FA2046A9686DE0AB681B78312BBB
:1030000040F067816B681A782C2A0BD15B689A684C
:10301000012A07D15B681B783E2B03D1204628216B
:10302000FEF749FAAB682046596800F0F9FA6E6875
:103030004B4973681F68384604F0A5FC68B9204600
:103040005B21FEF738FAAB6820469968FFF78EFCE3
:1030500020465D21FEF72FFA0DE03846414904F085
:1030600092FC18B12046314600F0D0FAAB682046F9
:10307000996800F0D5FA6B681A782C2A40F02D81F7
:103080005B689A68012A40F028815B681B783E2BB8
:1030900040F02381C2E0AB681A78332A40F01981EE
:1030A0009A681278342A40F014815968204600F05A
:1030B000B7FA2046696800F0A9FAAB6820469B6819
:1030C000596800F0ADFA20462749FEF727FAAB68A9
:1030D00020469B68996800F0A3FAFEE06A681178C0
:1030E00023295ED15268167C002E5BD0062E02D9B1
:1030F000072E57D140E0AA681278002A52D1362B09
:1031000003D120462D21FEF7D6F92046A968023EBC
:10311000FFF72CFC042E00F2E080DFE806F0030647
:10312000090C0F0020467521D0E020466C21CDE02F
:1031300020460E4980E020460D497DE020460D499D
:103140007AE000BFC7FC00007CF60000CDFC000068
:10315000D4FC0000DBFC0000DEFC0000E7FC00000B
:10316000F1FC0000DEFB0000F4FC0000F8FC0000B5
:10317000FCFC0000FBFC0000AA68117891B9916882
:1031800001290FD1352B0DD153681B78302B02D07C
:10319000312B07D102E0204651494DE020465149EC
:1031A0004AE0002628212046FEF785F92046696876
:1031B000FFF7DCFB29212046FEF77DF92B78362B23
:1031C00003D120462D21FEF776F9082E03D12046A3
:1031D0005B21FEF770F92046A968FFF7C7FB082EB0
:1031E0007BD120465D2171E020466968FEF7A2F997
:1031F00073E020463C4949E020466968FFF7B6FB8A
:103200002046A96846E0204629795FE020463749F4
:10321000FEF784F920466968FFF7A8FB20462921BC
:1032200054E020466968FFF72DFB60B920466968C5
:1032300000F0F6F92E492046FEF770F94DE080685F
:10324000013608B906E0002603782B2B02D143682B
:10325000002BF4D16F6800250DE0C4F82051204602
:103260003946FFF783FB731E9D4203DA204621494E
:10327000FEF754F90135B542EFDB2EE020461E493A
:103280001BE020461D4901E01D492046FEF746F996
:1032900069682046FFF76AFB1FE020461949FEF7E0
:1032A0003DF920466968FFF761FB17492046FEF7A4
:1032B00035F9A96804E015492046FEF72FF9696839
:1032C00020460131FEF736F920467D21FEF7F3F85E
:1032D00003E004F58E70FFF7BDFA12B0BDE8F08789
:1032E000FFFC000005FD00000AFD000019FD0000C4
:1032F00024FD0000DBFC000028FD00002FFD000085
:103300004DFD00006AFD000073FD000076FD000029
:103310000B7870B5033B04460D46262B4FD8DFE8EB
:1033200003F03F4E4E4E4E4E4E4E4E4E4E4E4E4E75
:103330004E4E4E4E4E4E14161B14161B1D23292B9B
:103340002D2F4E4E4E4E314E41001F4900E01F4979
:10335000BDE87040FEF7E2B81D49F9E72021FEF70D
:10336000AAF82046A9682AE0036813F0040F2AD1BE
:103370002A2120E026211EE01649E9E71649E7E761
:103380001649E5E790F80831282B02D02021FEF7F6
:1033900092F820466968FFF7E9FA20461049D7E716
:1033A00049680CE00F49FEF7B9F820466968FFF755
:1033B000DDFA20462921BDE87040FEF77CB8BDE863
:1033C0007040FFF7D3BA70BD85FD00008FFD00008F
:1033D00099FD0000A0FD0000A3FD0000ACFD000071
:1033E000B7FD0000BBFD0000F8B504460D461746CA
:1033F000002D67D0D4F81C01FFF72FFA002861D107
:10340000AB68002B5CD12FB96B681B781A3BDBB221
:10341000022B55D901236968AB60EB68D4F81461BD
:10342000C4F814310B78252B04D120462A6800F00B
:103430008BF83DE0262B05D1204604312A6800F0A8
:1034400049F835E0022B36D1023BD4F818712046FA
:10345000C4F818314968FFF789FA2368C4F818716D
:1034600013F0040F04D120461749FEF757F803E084
:1034700020462E21FEF71FF86B689D682B783F2BA6
:103480000DD120461149FEF749F8A96820460131BF
:10349000FEF750F820460E49FEF740F86D682B788D
:1034A0001A3BDBB2022BF9D920462946FFF75EFA18
:1034B000C4F81461F8BD2046FFF72AFFC4F8146170
:1034C0002D6895E7F8BD00BFD5FD0000C6FD0000E2
:1034D000D4FD00002DE9F04104460F469046BAB1F4
:1034E00013469D6825B95B681B78262B23D103E022
:1034F0001B68002BF5D101250026204641460022FD
:10350000FFF772FF1EB120462921FDF7D4FF1DB140
:1035100020462021FDF7CFFF5B212046FDF7CBFFA2
:10352000396811B12046FFF721FA20465D21BDE838
:10353000F041FDF7C0BF204602490125FDF7EEFF2F
:103540002E46DAE721FD00002DE9F041134616462C
:1035500004460F46002211E0996891B95A68127822
:10356000173AD0B2102807D8274852B2904046D414
:103570004FF0E070904040D41B680122002BEBD14B
:1035800000E000231D46796801B102B18DB194F8C5
:1035900008211BB9282A07D02A2A05D0202A03D0BF
:1035A00020462021FDF787FF20462821FDF783FFD5
:1035B0000125D4F8188100222046C4F8182131468C
:1035C000FFF712FF1DB120462921FDF774FF2821C6
:1035D0002046FDF770FFB96811B12046FFF7C6F924
:1035E00020462921FDF767FF204631460122FFF7DB
:1035F000FBFEC4F81881BDE8F0810B4600E0012312
:1036000001221546BFE700BF008030E20A782C2A6D
:1036100004D14B6859689A68FDF760BFFFF7A6B9F7
:103620000B7870B505460E4633B1062B04D0282121
:103630000024FDF740FF00E0012428463146FFF753
:1036400095F92CB928462921BDE87040FDF733BF14
:1036500070BD2DE9F043D9B0064600AF0D460378A2
:1036600014465F2B02D143785A2B1FD030465C4959
:10367000082204F0A3F9F0B9337A2E2B03D05F2B84
:1036800001D0242B15D196F80990B9F1440F02D03E
:10369000B9F1490F0FD1B37A5F2B0CD1B9F1490FB2
:1036A00014BF4FF003094FF0020906E04FF0010983
:1036B00003E0814601E04FF0000930464FF000087A
:1036C00004F074F90C22C7F82C61C7F83861C7F808
:1036D0004081C7F84C81C7F85481C7F85881C7F8B2
:1036E0005C813318C7F85001C7F830311123C7F88F
:1036F000343143008000C7F844310E30534308335F
:10370000B9F1010FADEB030D20F007006B46ADEBF7
:10371000000DC7F83C31C7F848D108D002D3B9F141
:10372000030F0BD907F59670FEF79BFB04E007F536
:1037300096704946FEF7B3F9064622E00B36C7F805
:1037400038613046B9F1020F14BF4FF03D094FF018
:103750003C0904F02BF93146024607F59670FDF757
:10376000ACFD43464946024607F59670FDF766FDF7
:10377000D7F838810646404604F018F94044C7F8A7
:103780003801D7F838311B7813BB1EB3381D3146CA
:103790001122C7F808317A6087F80C31C7F8183160
:1037A000C7F81C31C7F82831C7F82031C7F81051C5
:1037B000C7F81441FFF7DAF8381DFDF767FED7F8B0
:1037C0002001FFF74AF8D0F1010038BF002002E0E5
:1037D000002000E0304607F5B277BD46BDE8F08333
:1037E000ACFB00002DE9FF410D4614461E4630B9E2
:1037F000002B4CD06FF00203074633604AE039B12A
:1038000032B9002B43D06FF002031746336041E01A
:1038100022496A4600230093019302930393FFF722
:1038200018FF074620B90098B84603F033FA08E0BD
:10383000039B13B9DDF8088001E04FF00108009FF9
:1038400057B936B3B8F1010F0CBF4FF0FF336FF02B
:103850000103002733601DE00DB994B913E0384629
:1038600004F0A4F82368984208D23946284604F0A8
:1038700095F8384603F00EFA2F4604E0284603F088
:1038800009FAC4F800802EB10023336002E01F461D
:1038900000E03746384604B0BDE8F08191150000DD
:1038A00008B540B151B1FFF7D4FE002814BF002085
:1038B0006FF0010008BD6FF0020008BD6FF002005C
:1038C00008BD00BF08B500F00BF8006830B190F8F3
:1038D0002730012B04BF00687838006808BD00005D
:1038E00000487047AC07001030B521F000441D4D72
:1038F00087B002460B46AC4202DC0022002313E0F4
:10390000194DAC4202DD01F0F9F929E002AA00F0FC
:10391000F3F800F00300012809D002280FD0B8B94D
:10392000DDE90201DDE9042300F0E6FA18E0009089
:10393000DDE90423DDE9020100F032FF05E0DDE905
:103940000201DDE9042300F0D7FA01F1004107E0AC
:103950000123DDE902010093DDE9042300F020FFEB
:1039600007B030BDFB21E93FFFFFEF7F0000000003
:10397000F8B50446384B0D4616460F4601EA0303D8
:103980004FEA235C6BB921F00047074356D0002271
:10399000324B01F067FB324FBE4204460D4609DA56
:1039A00038E040F2FF739C450CD102460B4601F013
:1039B000A7F941E0284B0F4601EA03034FEA235CD5
:1039C000ACF1360CB44440F2FE739C4510DCBCF103
:1039D000000F06DD27F0FE4727F4700747EA0C5575
:1039E0002CE01CF1350F19DA4CF250339E420ADDFF
:1039F00022462B4614A1D1E9000100F091FF12A349
:103A0000D3E9002316E012A1D1E9000122462B469A
:103A100000F086FF0EA3D3E900230BE00CF1360C77
:103A200027F0FE4727F470070E4B47EA0C55204657
:103A30002946002201F016FB04460D462046294681
:103A4000F8BD00BFAFF300809C7500883CE4377E72
:103A500059F3F8C21F6EA5010000F07F000050432B
:103A6000B03CFFFF0000903C30B521F000441F4DFA
:103A700087B002460B46AC4204DC002300220093D0
:103A8000002315E01A4DAC4202DD01F037F92AE0BF
:103A900002AA00F031F800F0030001280BD0022840
:103AA00010D0C0B90123DDE902010093DDE9042350
:103AB00000F076FE17E0DDE90201DDE9042300F005
:103AC0001BFA10E00123DDE902010093DDE9042384
:103AD00000F066FE05E0DDE90201DDE9042300F007
:103AE0000BFA01F1004107B030BD00BFFB21E93FF7
:103AF000FFFFEF7F000000004D4B2DE9F04F21F05C
:103B000000468FB09E42804689461446079106DCE7
:103B1000C2E9008900230022C4E902236DE1454B7C
:103B20009E4200F38B80079B434D002B36DD38A36C
:103B3000D3E9002301F0E2F8AE428046894610D076
:103B400035A3D3E9002301F0D9F802460B464046DD
:103B5000C4E90023494601F0D1F82FA3D3E900239B
:103B600016E02FA3D3E9002301F0C8F82EA3D3E970
:103B7000002306460F4601F0C1F802460B463046C8
:103B8000C4E90023394601F0B9F827A3D3E900239B
:103B900001F0B4F80125C4E90201A7E11CA3D3E9AF
:103BA000002301F0ADF8AE428046894610D01AA33A
:103BB000D3E9002301F0A4F802460B464046C4E9CD
:103BC0000023494601F09AF813A3D3E9002316E035
:103BD00013A3D3E9002301F093F813A3D3E900233F
:103BE00006460F4601F08CF802460B463046C4E903
:103BF0000023394601F082F80BA3D3E9002301F03A
:103C00007FF84FF0FF35C4E902016FE1AFF30080A8
:103C100000004054FB21F93F3163621A61B4D03D8A
:103C20000000601A61B4D03D7370032E8A19A33B63
:103C3000FB21E93F7BD90240FB21F93F964B9E4295
:103C400000F3D08000F074FE85A3D3E90023804602
:103C5000894601F007FA0022904B01F051F801F07B
:103C60009BFC054601F098F97FA3D3E90023CDE939
:103C7000040101F0F7F902460B464046494601F0BF
:103C80003DF87BA3D3E9002380468946DDE90401A2
:103C900001F0E8F91F2D82468B4605DC804B6A1E39
:103CA00053F822309E4278D15B4640464946524600
:103CB00001F024F84FEA265C0B0DC4E900015B0516
:103CC0005B0DC3EB0C03102B72DD6BA3D3E9002358
:103CD000DDE90401CDF80CC001F0C4F982468B4641
:103CE00052465B464046494601F008F806460F46F4
:103CF0004046494632463B4601F000F852465B4694
:103D000000F0FCFF5EA3D3E9002380468946DDE98D
:103D1000040101F0A7F942464B4600F0EFFF82464E
:103D20008B465B4630463946524600F0E7FFDDF8E9
:103D30000CC00B0DC4E900015B055B0DC3EB0C0C63
:103D4000BCF1310F32DD50A3D3E90023DDE90401DA
:103D500001F088F982468B4652465B46304639462A
:103D600000F0CCFF804689463046394642464B46F5
:103D700000F0C4FF52465B4600F0C0FF44A3D3E905
:103D8000002306460F46DDE9040101F06BF93246D7
:103D90003B4600F0B3FF82468B46404649465246BA
:103DA0005B4600F0ABFFC4E9000101E0B046B94654
:103DB000D4E900234046494600F0A0FF5B46524646
:103DC00000F09CFF079B002BC4E9020180F28E806B
:103DD00063686D4203F100436360E36803F10043ED
:103DE000E36083E02F4B9E4209DD02460B4600F064
:103DF00085FFC4E90201C4E90001002576E035151C
:103E0000A5F58265063D2905731A19461F4601F07E
:103E1000C3FB01F0C1F802460B4640463946CDE9E6
:103E2000082300F06BFF00221F4B01F01BF90F4627
:103E3000064601F0B1FB01F0AFF802460B463046F2
:103E40003946CDE90A2300F059FF0022164B01F054
:103E500009F90EAF0326CDE90C0128E0AFF300808D
:103E600083C8C96D305FE43F00004054FB21F93F37
:103E70003163621A61B4D03D0000601A61B4D03D74
:103E80007370032E8A19A33B0000002E8A19A33BEE
:103E9000C14920259A837B39FB2139410000E03F4D
:103EA00000010100FFFFEF7F00007041013E77E954
:103EB00002010022002301F03DFB0028F6D102237D
:103EC00000930C4B2A4608A821460193334600F084
:103ED000FFF8079B002B054608DA6368454203F1AB
:103EE00000436360E36803F10043E36028460FB0DA
:103EF000BDE8F08F800101002DE9F04F21F000476F
:103F000085B0B7F1795F80468946CDE9002304DAB0
:103F100001F042FB002800F0B08042464B4640468C
:103F2000494601F09FF858A3D3E9002304460D4603
:103F300001F098F856A3D3E9002300F0E1FE024611
:103F40000B462046294601F08DF853A3D3E9002300
:103F500000F0D4FE02460B462046294601F082F8C6
:103F60004FA3D3E9002300F0CBFE02460B462046C8
:103F7000294601F077F84CA3D3E9002300F0BEFEF8
:103F800002460B462046294601F06CF848A3D3E9C7
:103F9000002300F0B5FE0B4602462946204601F0FC
:103FA00061F8454B9F4282468B4626DC20462946D7
:103FB0000022424B01F056F852465B4606460F4639
:103FC0002046294601F04EF8DDE9002304460D465F
:103FD0004046494601F046F802460B46204629462F
:103FE00000F08CFE02460B463046394600F086FE55
:103FF00002460B46002032493CE0324B9F4205DC32
:10400000A7F50013002216461F4601E02E4F00269A
:1040100032463B4600202A4900F070FE0022274B22
:10402000CDE902012046294601F01CF832463B4604
:1040300000F064FE52465B4606460F46204629467F
:1040400001F010F8DDE9002304460D4640464946DC
:1040500001F008F802460B462046294600F04EFEC5
:1040600002460B463046394600F048FE02460B46F3
:10407000DDE9020100F042FE01E01149002005B037
:10408000BDE8F08FAFF30080D43888BEE9FAA8BD50
:10409000C4B1B4BD9EEE213EAD529C804F7E923E97
:1040A0009015CB19A001FA3E7751C1166CC1563F4D
:1040B0004C5555555555A53F3233D33F0000E03F91
:1040C0000000F03F0000E93F0000D23FAFF3008066
:1040D0002DE9F04FADF51B7D0D46144606931827CC
:1040E0000C905CAEA498A24B069953F8203001398D
:1040F000D01E00911821059300F0A2FC009A20EA3E
:10410000E0700A90C343C2EB000807FB0347059B1E
:10411000002403EB02090FE014EB080F07D4A59865
:1041200000EB880353F8240000F036FF01E0002084
:1041300000210134E6E902014C45EDDD0DF1300AC4
:10414000B8460024574619E077E902230136F4E81F
:10415000020100F087FF02460B46DDE9020100F094
:10416000CFFDCDE9020100998E42EDDDDDE90223AC
:1041700047460AF10104C846E7E90223059B9C4231
:1041800013DC06985EA9DDF83090002304EB000AEA
:104190000022CDE90223002601EBCA0A5346A246BB
:1041A0004C46C146B8461F46DDE7059C47460D957F
:1041B0000EA8254600EBC403A04685AE0993D3E9BB
:1041C00000AB1C4622E000226A4B5046594600F0E4
:1041D00049FF013D01F0E0F900F0DEFE0022664BF0
:1041E000CDE9020100F03EFF02460B46504659461B
:1041F00000F084FD01F0D0F9DDE9022346F8040F58
:1042000074E9020100F07CFD82468B46002DDADC69
:10421000504659463A464446FFF7AAFB00224FF063
:104220007F538046894600F01DFF00F085FB002289
:10423000524B00F017FF02460B464046494600F03D
:104240005DFD8946804601F0A7F9029000F0A4FECA
:1042500002460B464046494600F050FD002F82467C
:104260008B4614DD631E9AA9029801EB8303C7F104
:10427000180153F8502C52FA01F6801902908E4022
:10428000961B43F8506CC7F117031E410EE006D190
:104290009AA901EB840353F8546CF61506E000224A
:1042A000374B01F065F920B9002653E0002E01DC00
:1042B00050E00226029A00231D460132029286AA8D
:1042C00010E052F8040B35B958B1C0F180700135D7
:1042D00042F8040C05E001256FF07F41091A42F80D
:1042E000041C0133A342ECDB002F1BDD012F02D0A5
:1042F000022F17D10AE0621E9AAB03EB820252F83A
:10430000503C23F07F4323F4000309E0621E9AA887
:1043100000EB820252F8503C23F07F4323F4400329
:1043200042F8503C022E15D152465B4600201549FA
:1043300000F0E4FC82468B4665B13A460020114904
:10434000FFF716FB02460B465046594600F0D6FCD6
:1043500082468B46504659460022002301F0EAF877
:10436000002874D086AB224603EB840100230EE0C4
:10437000880201000000703E0000704100002040F3
:104380000000E03F0000F03F51F8040D03430598A2
:10439000013A8242F8DA002B5CD186A94FF001087D
:1043A00001EB800301E008F1010853F8042D002A15
:1043B000F9D00A9A5EA9A59B651C04EB020B06982E
:1043C000B94603EB8B0B2318013B5E4601EBC3019F
:1043D0000B9135E056F8040F002700F0DDFD0B9A35
:1043E000069BDDF830A005EB030B0023E2E9020198
:1043F0005EA800EBCB0B0B920022CDE902235B46BB
:10440000A3465446AA461D460EE075E9022301372D
:10441000F4E8020100F026FE02460B46DDE9020147
:1044200000F06EFCCDE90201009B9F42EDDD099A90
:104430005C46DDE902010AF10105E2E902010992A7
:1044400008EB04039D42C5DD4F461C46B0E60D9DBA
:1044500070B100E00D9D86A8183F00EB8403013C7D
:1044600001E0013C183F53F8042D002AF9D03DE04B
:104470007A4250465946FFF77BFA0022874B804626
:10448000894601F075F840B30022854B4046494605
:1044900000F0E8FD183701F07FF800F07DFD9AAAE2
:1044A00002EB840A7D4B00220134CDE9000100F0CB
:1044B000D9FD02460B464046494600F01FFC01F07C
:1044C0006BF89AAB03EB84084AF8500CDDE9000165
:1044D00001F062F848F8500C08E09AA8494600EB51
:1044E000840A404601F058F84AF8500C3A46002039
:1044F0006C4904F10109FFF73BFA0EAA02EBC90A65
:1045000027465346A246CDE9000186A901EB89085A
:104510004446B0461E4614E054F8040D013F00F036
:104520003BFD02460B46DDE9000100F09BFD002249
:104530005B4B66E90201DDE9000100F093FDCDE986
:104540000001002FE8DA5446464634ABD0460693C5
:104550004FF0000A09941FE0F6E902230134F5E95F
:10456000020100F07FFD02460B46DDE9000100F08C
:10457000C7FBCDE900010598844201DC5445EBDD21
:1045800006984646DDE900233D460BF1FF380AF167
:10459000010AE0E902230690B8F1000F11DB08F1EF
:1045A000FF3CDFF804B10EA9002201EBCC0C002384
:1045B0002F46CDE900235D460024C346B04666463B
:1045C000D9E7A49B099C032B00F2E180DFE803F00C
:1045D0001409090236A9A24601EBC407A0463C46CD
:1045E00080E036AA4FF0000E02EBC90927464B4681
:1045F000F046A1461C4622E036AB4FF0000803EB24
:10460000C907C44608E04046614677E90223013CF9
:1046100000F076FB80468C46002CF4DA0EB10CF1EB
:10462000004C42466346C5E90023B0E0704641466F
:1046300074E90223013F00F063FB86468846002FA1
:10464000F4DA4C46C4460EB108F100489AAF7246FF
:104650004346C5E9002377E964017246634600F0EA
:104660004DFBB84601270B46314602464646884672
:1046700008E010461946F6E90223013700F040FB36
:1046800002460B46A742F4DD46460EB103F1004355
:1046900010461946C5E9020179E000BF00007041EB
:1046A0000000703E0000F03F90020100D4E90223B8
:1046B0000AF1FF3AD4E9000100F022FBCDE906013E
:1046C000DDE90623D4E9000100F018FB02460B46A1
:1046D000D4E9020100F014FBC4E90201DDE906019E
:1046E000C4E90001083CBAF1000FDFDC444619E0E0
:1046F000D7E9022308F1FF38D7E9000100F000FBF9
:1047000082468B465246D7E900015B4600F0F6FA36
:1047100002460B46D7E9020100F0F2FAC7E900AB06
:10472000C7E90201083FB8F1010FE1DC36A94FF0FB
:10473000000C01EBC907E04608E06046414677E916
:104740000223013C00F0DCFA84468846012CF4DCAC
:1047500066B9DDE93623C5E90023DDE93823C5E97B
:10476000022362464346C5E9042310E0369B2B60D2
:10477000379B03F100436B60389BAB60399BC5F8F6
:1047800010C003F10043EB6008F100436B61029A33
:1047900002F007000DF51B7DBDE8F08F0000000062
:1047A0002DE9F04F85B004460D46CDE9002321F0F8
:1047B0000043B3F1795F04DA00F0EEFE002800F068
:1047C0008C8022462B462046294600F04BFC224690
:1047D0002B4606460F4600F045FC43A3D3E90023D1
:1047E00082468B463046394600F03CFC40A3D3E974
:1047F000002300F083FA02460B463046394600F0AB
:1048000031FC3DA3D3E9002300F07AFA02460B46BF
:104810003046394600F026FC39A3D3E9002300F0E6
:104820006DFA02460B463046394600F01BFC36A3B3
:10483000D3E9002300F064FA0E9B80468946BBB999
:1048400042464B463046394600F00CFC30A3D3E9D3
:10485000002300F053FA02460B465046594600F03A
:1048600001FC02460B462046294600F049FA32E098
:104870000022294BDDE9000100F0F4FB42464B46E3
:10488000CDE902015046594600F0ECFB02460B46CA
:10489000DDE9020100F032FA02460B4630463946A5
:1048A00000F0E0FBDDE9002300F028FA18A3D3E9CB
:1048B000002306460F465046594600F0D3FB0246F9
:1048C0000B463046394600F01BFA02460B4620469E
:1048D000294600F013FA04460D462046294605B045
:1048E000BDE8F08FAFF300807CD5CF5A3AD9E53DD3
:1048F000EB9C2B8AE6E55A3E7DFEB157E31DC73E91
:10490000D561C119A0012A3FA6F810111111813FEC
:10491000495555555555C53F0000E03FAFF3008060
:1049200003F0004321F0004230B543EA020130BDFC
:1049300021F00041704700002DE9F0410F150246BB
:104940000B467F050C46804605467F0DA7F57E7712
:10495000FE1F132E36DC002E17DA35A3D3E9002311
:1049600000F0CEF90022002300F00CFE002859D000
:10497000002C55DA24F0004343EA08052E4B002DA5
:1049800018BF002518BF1C464CE02C4F374107EAE2
:10499000010C5CEA000C47D025A3D3E9002300F00A
:1049A000AFF90022002300F0EDFD00283AD0002CE2
:1049B00004DA4FF4801353FA06F6A41924EA070424
:1049C00000252FE0332E07DDB6F5806F2CD100F0E7
:1049D00097F902460B4627E04FF0FF3C1B3F2CFAAD
:1049E00007F7074220D012A3D3E9002300F088F98B
:1049F0000022002300F0C6FDA0B1002C0DDA142E19
:104A000001D1013409E00123C6F1340613FA06F698
:104A100008EB0605454538BFE41825EA070501E01F
:104A200000252C4623462A4610461946BDE8F0814B
:104A30009C7500883CE4377E0000F0BFFFFF0F004C
:104A4000002900F03E8180EA010C48BF49424A1E1D
:104A500000F01F81030048BF43428B4240F21E8199
:104A6000114200F02381B3FA83F2B1FA81F0A0EB96
:104A70000202C2F11F0204A000EB02124FF000007C
:104A8000974600BFAFF30080B3EBC17F00BF40EBA0
:104A9000000028BFA3EBC173B3EB817F00BF40EBE5
:104AA000000028BFA3EB8173B3EB417F00BF40EB55
:104AB000000028BFA3EB4173B3EB017F00BF40EBC5
:104AC000000028BFA3EB0173B3EBC16F00BF40EB45
:104AD000000028BFA3EBC163B3EB816F00BF40EBC5
:104AE000000028BFA3EB8163B3EB416F00BF40EB35
:104AF000000028BFA3EB4163B3EB016F00BF40EBA5
:104B0000000028BFA3EB0163B3EBC15F00BF40EB24
:104B1000000028BFA3EBC153B3EB815F00BF40EBA4
:104B2000000028BFA3EB8153B3EB415F00BF40EB14
:104B3000000028BFA3EB4153B3EB015F00BF40EB84
:104B4000000028BFA3EB0153B3EBC14F00BF40EB04
:104B5000000028BFA3EBC143B3EB814F00BF40EB84
:104B6000000028BFA3EB8143B3EB414F00BF40EBF4
:104B7000000028BFA3EB4143B3EB014F00BF40EB64
:104B8000000028BFA3EB0143B3EBC13F00BF40EBE4
:104B9000000028BFA3EBC133B3EB813F00BF40EB64
:104BA000000028BFA3EB8133B3EB413F00BF40EBD4
:104BB000000028BFA3EB4133B3EB013F00BF40EB44
:104BC000000028BFA3EB0133B3EBC12F00BF40EBC4
:104BD000000028BFA3EBC123B3EB812F00BF40EB44
:104BE000000028BFA3EB8123B3EB412F00BF40EBB4
:104BF000000028BFA3EB4123B3EB012F00BF40EB24
:104C0000000028BFA3EB0123B3EBC11F00BF40EBA3
:104C1000000028BFA3EBC113B3EB811F00BF40EB23
:104C2000000028BFA3EB8113B3EB411F00BF40EB93
:104C3000000028BFA3EB4113B3EB011F00BF40EB03
:104C4000000028BFA3EB0113B3EBC10F00BF40EB83
:104C5000000028BFA3EBC103B3EB810F00BF40EB03
:104C6000000028BFA3EB8103B3EB410F00BF40EB73
:104C7000000028BFA3EB4103B3EB010F00BF40EBE3
:104C8000000028BFA3EB0103BCF1000F48BF404266
:104C900070479CEA000F48BF4042704738BF002071
:104CA00004BF4FEAEC7040F001007047B1FA81F2A6
:104CB000C2F11F02BCF1000F23FA02F048BF4042CC
:104CC00070470028C8BF6FF00040B8BF4FF00040E9
:104CD00000F00EB80029F4D02DE90340FFF7B3FE31
:104CE000BDE8064002FB00F3A1EB0301704700BFE3
:104CF000704700BF81F0004102E000BF83F0004335
:104D000030B54FEA41044FEA430594EA050F08BF66
:104D100090EA020F1FBF54EA000C55EA020C7FEA2A
:104D2000645C7FEA655C00F0E2804FEA5454D4EBA7
:104D30005555B8BF6D420CDD2C4480EA020281EA71
:104D4000030382EA000083EA010180EA020281EAA9
:104D50000303362D88BF30BD11F0004F4FEA0131FB
:104D60004FF4801C4CEA113102D0404261EB41010A
:104D700013F0004F4FEA03334CEA133302D0524290
:104D800063EB430394EA050F00F0A780A4F101044C
:104D9000D5F1200E0DDB02FA0EFC22FA05F2801886
:104DA00041F1000103FA0EF2801843FA05F359416C
:104DB0000EE0A5F120050EF1200E012A03FA0EFCEB
:104DC00028BF4CF0020C43FA05F3C01851EBE37115
:104DD00001F0004507D54FF0000EDCF1000C7EEB32
:104DE00000006EEB0101B1F5801F1BD3B1F5001F70
:104DF0000CD349085FEA30004FEA3C0C04F101048F
:104E00004FEA445212F5800F80F09A80BCF1004FB7
:104E100008BF5FEA500C50F1000041EB045141EA39
:104E2000050130BD5FEA4C0C404141EB010111F43A
:104E3000801FA4F10104E9D191F0000F04BF0146E5
:104E40000020B1FA81F308BF2033A3F10B03B3F1C3
:104E500020020CDA0C3208DD02F1140CC2F10C0253
:104E600001FA0CF021FA02F10CE002F11402D8BFB1
:104E7000C2F1200C01FA02F120FA0CFCDCBF41EA7D
:104E80000C019040E41AA2BF01EB0451294330BD4C
:104E90006FEA04041F3C1CDA0C340EDC04F1140429
:104EA000C4F1200220FA04F001FA02F340EA030000
:104EB00021FA04F345EA030130BDC4F10C04C4F146
:104EC000200220FA02F001FA04F340EA0300294626
:104ED00030BD21FA04F0294630BD94F0000F83F470
:104EE000801306BF81F480110134013D4EE77FEA53
:104EF000645C18BF7FEA655C29D094EA050F08BF9F
:104F000090EA020F05D054EA000C04BF194610467F
:104F100030BD91EA030F1EBF0021002030BD5FEAC3
:104F2000545C05D14000494128BF41F0004130BDEB
:104F300014F580043CBF01F5801130BD01F000453F
:104F400045F0FE4141F470014FF0000030BD7FEAB2
:104F5000645C1ABF194610467FEA655C1CBF0B46AD
:104F6000024650EA013406BF52EA033591EA030FC4
:104F700041F4002130BD00BF90F0000F04BF0021BC
:104F8000704730B54FF4806404F132044FF00005EF
:104F90004FF0000150E700BF90F0000F04BF002168
:104FA000704730B54FF4806404F1320410F00045CE
:104FB00048BF40424FF000013EE700BF42004FEAC9
:104FC000E2014FEA31014FEA02701FBF12F07F4346
:104FD00093F07F4F81F06051704792F0000F14BF43
:104FE00093F07F4F704730B54FF4607401F0004587
:104FF00021F0004120E700BF50EA010208BF7047DE
:1050000030B54FF000050AE050EA010208BF7047D2
:1050100030B511F0004502D5404261EB41014FF43B
:10502000806404F132045FEA915C3FF4DCAE4FF03F
:1050300003025FEADC0C18BF03325FEADC0C18BF26
:10504000033202EBDC02C2F1200300FA03FC20FA77
:1050500002F001FA03FE40EA0E0021FA02F11444C4
:10506000C1E600BF70B54FF0FF0C4CF4E06C1CEAD9
:1050700011541DBF1CEA135594EA0C0F95EA0C0F4E
:1050800000F0DEF82C4481EA030621EA4C5123EAC1
:105090004C5350EA013518BF52EA033541F48011F0
:1050A00043F4801338D0A0FB02CE4FF00005E1FBA3
:1050B00002E506F00042E0FB03E54FF00006E1FBED
:1050C00003569CF0000F18BF4EF0010EA4F1FF0430
:1050D000B6F5007F64F5407404D25FEA4E0E6D4170
:1050E00046EB060642EAC62141EA55514FEAC52081
:1050F00040EA5E504FEACE2EB4F1FD0C88BFBCF5FD
:10510000E06F1ED8BEF1004F08BF5FEA500E50F1AD
:10511000000041EB045170BD06F0004646EA010173
:1051200040EA020081EA0301B4EB5C04C2BFD4EBA5
:105130000C0541EA045170BD41F480114FF0000E9E
:10514000013C00F3AB8014F1360FDEBF002001F00C
:10515000004170BDC4F10004203C35DA0C341BDC86
:1051600004F11404C4F1200500FA05F320FA04F058
:1051700001FA05F240EA020001F0004221F000418C
:1051800010EBD37021FA04F642EB06015EEA430EFF
:1051900008BF20EAD37070BDC4F10C04C4F120052F
:1051A00000FA04F320FA05F001FA04F240EA0200E2
:1051B00001F0004110EBD37041F100015EEA430EB3
:1051C00008BF20EAD37070BDC4F1200500FA05F2D3
:1051D0004EEA020E20FA04F301FA05F243EA020352
:1051E00021FA04F001F0004121FA04F220EA020061
:1051F00000EBD3705EEA430E08BF20EAD37070BDA7
:1052000094F0000F0FD101F00046400041EB010186
:1052100011F4801F08BF013CF7D041EA060195F068
:10522000000F18BF704703F00046520043EB030322
:1052300013F4801F08BF013DF7D043EA060370470F
:1052400094EA0C0F0CEA135518BF95EA0C0F0CD01A
:1052500050EA410618BF52EA4306D1D181EA030160
:1052600001F000414FF0000070BD50EA410606BF5A
:105270001046194652EA430619D094EA0C0F02D19F
:1052800050EA013613D195EA0C0F05D152EA0336E4
:105290001CBF104619460AD181EA030101F0004102
:1052A00041F0FE4141F470014FF0000070BD41F04B
:1052B000FE4141F4780170BD70B54FF0FF0C4CF425
:1052C000E06C1CEA11541DBF1CEA135594EA0C0F44
:1052D00095EA0C0F00F0A7F8A4EB050481EA030E91
:1052E00052EA03354FEA013100F088804FEA033378
:1052F0004FF0805545EA131343EA12634FEA022246
:1053000045EA111545EA10654FEA00260EF0004106
:105310009D4208BF964244F1FD0404F5407402D258
:105320005B084FEA3202B61A65EB03055B084FEAE9
:1053300032024FF480104FF4002CB6EB020E75EBE6
:10534000030E22BFB61A754640EA0C005B084FEA0E
:105350003202B6EB020E75EB030E22BFB61A75468B
:1053600040EA5C005B084FEA3202B6EB020E75EBD6
:10537000030E22BFB61A754640EA9C005B084FEA4E
:105380003202B6EB020E75EB030E22BFB61A75465B
:1053900040EADC0055EA060E18D04FEA051545EA4A
:1053A00016754FEA06164FEAC30343EA52734FEAF3
:1053B000C2025FEA1C1CC0D111F4801F0BD141EA6C
:1053C00000014FF000004FF0004CB6E711F4801FD1
:1053D00004BF01430020B4F1FD0C88BFBCF5E06FB1
:1053E0003FF6AFAEB5EB030C04BFB6EB020C5FEAC1
:1053F000500C50F1000041EB045170BD0EF0004E16
:105400004EEA113114EB5C04C2BFD4EB0C0541EA47
:10541000045170BD41F480114FF0000E013C90E644
:1054200045EA060E8DE60CEA135594EA0C0F08BF08
:1054300095EA0C0F3FF43BAF94EA0C0F0AD150EA07
:1054400001347FF434AF95EA0C0F7FF425AF10469A
:1054500019462CE795EA0C0F06D152EA03353FF4C2
:10546000FDAE1046194622E750EA410618BF52EA3F
:1054700043067FF4C5AE50EA41047FF40DAF52EA13
:1054800043057FF4EBAE12E74FF0FF3C06E000BFB0
:105490004FF0010C02E000BF4FF0010C4DF804CDBD
:1054A0004FEA410C7FEA6C5C4FEA430C18BF7FEA7D
:1054B0006C5C1BD001B050EA410C0CBF52EA430CAB
:1054C00091EA030F02BF90EA020F0020704710F12B
:1054D000000F91EA030F58BF994208BF90422CBFBA
:1054E000D8176FEAE37040F0010070474FEA410CB3
:1054F0007FEA6C5C02D150EA013C07D14FEA430CD1
:105500007FEA6C5CD6D152EA033CD3D05DF8040B41
:10551000704700BF8446104662468C461946634673
:1055200000E000BF01B5FFF7B7FF002848BF10F14A
:10553000000F01BD4DF808EDFFF7F4FF0CBF01208F
:1055400000205DF808FB00BF4DF808EDFFF7EAFF0B
:1055500034BF012000205DF808FB00BF4DF808EDC6
:10556000FFF7E0FF94BF012000205DF808FB00BFBB
:105570004DF808EDFFF7CEFF94BF012000205DF845
:1055800008FB00BF4DF808EDFFF7C4FF34BF012052
:1055900000205DF808FB00BF4FEA410212F500123F
:1055A00015D211D56FF47873B3EB625212D94FEA6A
:1055B000C12343F0004343EA505311F0004F23FA54
:1055C00002F018BF404270474FF00000704750EAA9
:1055D000013005D111F0004008BF6FF00040704766
:1055E0004FF00000704700BF4FEA4102B2F1E043C4
:1055F00024BFB3F5001CDCF1FE5C0DD901F0004CBA
:105600004FEAC0024CEA5070B2F1004F40EB830009
:1056100008BF20F00100704711F0804F21D113F135
:105620003872BCBF01F00040704741F480114FEA6E
:105630005252C2F11802C2F1200C10FA0CF320FAF7
:1056400002F018BF40F001004FEAC1234FEAD32314
:1056500003FA0CFC40EA0C0023FA02F34FEA43037E
:10566000CCE77FEA625307D150EA01331EBF4FF007
:10567000FE4040F44000704701F0004040F0FE4022
:1056800040F40000704700BF80F0004002E000BF1F
:1056900081F0004142001FBF5FEA410392EA030F1D
:1056A0007FEA226C7FEA236C6AD04FEA1262D2EB67
:1056B0001363C1BFD218414048404140B8BF5B426C
:1056C000192B88BF704710F0004F40F4000020F005
:1056D0007F4018BF404211F0004F41F4000121F01B
:1056E0007F4118BF494292EA030F3FD0A2F1010265
:1056F00041FA03FC10EB0C00C3F1200301FA03F1A3
:1057000000F0004302D5494260EB4000B0F5000FC5
:1057100013D3B0F1807F06D340084FEA310102F184
:105720000102FE2A51D2B1F1004F40EBC25008BF36
:1057300020F0010040EA03007047490040EB000000
:1057400010F4000FA2F10102EDD1B0FA80FCACF12F
:10575000080CB2EB0C0200FA0CF0AABF00EBC2502E
:1057600052421843BCBFD0401843704792F0000F1C
:1057700081F4000106BF80F400000132013BB5E76F
:105780004FEA41037FEA226C18BF7FEA236C21D0E5
:1057900092EA030F04D092F0000F08BF084670474A
:1057A00090EA010F1CBF0020704712F07F4F04D118
:1057B000400028BF40F00040704712F100723CBF2B
:1057C00000F50000704700F0004343F0FE4040F455
:1057D000000070477FEA226216BF08467FEA236313
:1057E0000146420206BF5FEA412390EA010F40F4FE
:1057F000800070474FF0000304E000BF10F000434A
:1058000048BF40425FEA000C08BF704743F0964330
:1058100001464FF000001CE050EA010208BF70474B
:105820004FF000030AE000BF50EA010208BF7047D2
:1058300011F0004302D5404261EB41015FEA010CE7
:1058400002BF84460146002043F0B64308BFA3F1DF
:105850008053A3F50003BCFA8CF2083AA3EBC253C1
:1058600010DB01FA02FC634400FA02FCC2F12002E0
:10587000BCF1004F20FA02F243EB020008BF20F017
:105880000100704702F1200201FA02FCC2F120027D
:1058900050EA4C0021FA02F243EB020008BF20EA72
:1058A000DC7070474FF0FF0C1CEAD0521EBF1CEAA0
:1058B000D15392EA0C0F93EA0C0F6FD01A4480EA8E
:1058C000010C400218BF5FEA41211ED04FF0006377
:1058D00043EA501043EA5111A0FB01310CF00040A3
:1058E000B1F5000F3EBF490041EAD3715B0040EAC9
:1058F000010062F17F02FD2A1DD8B3F1004F40EB99
:10590000C25008BF20F00100704790F0000F0CF06B
:10591000004C08BF49024CEA502040EA51207F3A2F
:10592000C2BFD2F1FF0340EAC250704740F400000A
:105930004FF00003013A5DDC12F1190FDCBF00F0FB
:1059400000407047C2F10002410021FA02F1C2F1A9
:10595000200200FA02FC5FEA310040F1000053EA45
:105960004C0308BF20EADC70704792F0000F00F093
:10597000004C02BF400010F4000F013AF9D040EA99
:105980000C0093F0000F01F0004C02BF490011F42D
:10599000000F013BF9D041EA0C018FE70CEAD1532B
:1059A00092EA0C0F18BF93EA0C0F0AD030F0004CAB
:1059B00018BF31F0004CD8D180EA010000F000405F
:1059C000704790F0000F17BF90F0004F084691F01D
:1059D000000F91F0004F14D092EA0C0F01D1420257
:1059E0000FD193EA0C0F03D14B0218BF084608D120
:1059F00080EA010000F0004040F0FE4040F400006A
:105A0000704740F0FE4040F4400070474FF0FF0CFC
:105A10001CEAD0521EBF1CEAD15392EA0C0F93EA43
:105A20000C0F69D0A2EB030280EA010C49024FEA95
:105A3000402037D04FF0805343EA111143EA10134E
:105A40000CF000408B4238BF5B0042F17D024FF406
:105A5000000C8B4224BF5B1A40EA0C00B3EB510FE1
:105A600024BFA3EB510340EA5C00B3EB910F24BFCA
:105A7000A3EB910340EA9C00B3EBD10F24BFA3EB4F
:105A8000D10340EADC001B0118BF5FEA1C1CE0D117
:105A9000FD2A3FF650AF8B4240EBC25008BF20F0CA
:105AA000010070470CF0004C4CEA50207F32C2BF1E
:105AB000D2F1FF0340EAC250704740F400004FF0BB
:105AC0000003013A37E792F0000F00F0004C02BFEC
:105AD000400010F4000F013AF9D040EA0C0093F0B6
